:020000040800F2
:1000000000000520A1ED0008AD0C0008AF0C0008B1
:10001000B10C0008B30C0008B50C0008000000008B
:1000200000000000000000000000000011CE0008E9
:10003000B70C000800000000B1CE0008B90C0008A1
:10004000F1ED0008F1ED0008F1ED0008F1ED000818
:10005000F1ED0008F1ED0008F1ED0008F1ED000808
:10006000F1ED0008F1ED0008F1ED0008F1ED0008F8
:10007000F1ED0008F1ED0008F1ED0008F1ED0008E8
:10008000F1ED0008F1ED0008F1ED0008F1ED0008D8
:10009000F1ED0008F1ED0008F1ED0008F1ED0008C8
:1000A000F1ED0008F1ED0008F1ED0008F1ED0008B8
:1000B000F1ED0008F1ED0008F1ED0008F1ED0008A8
:1000C000F1ED0008F1ED0008F1ED0008F1ED000898
:1000D000F1ED0008F1ED0008F1ED0008F1ED000888
:1000E000F1ED0008F1ED0008F1ED0008F1ED000878
:1000F000F1ED0008F1ED0008F1ED0008F1ED000868
:10010000F1ED0008F1ED0008F1ED0008F1ED000857
:10011000F1ED0008F1ED00089D0C0008F1ED00087C
:10012000F1ED0008F1ED0008F1ED0008F1ED000837
:10013000F1ED0008C10C0008F1ED0008F1ED000838
:10014000F1ED0008F1ED0008F1ED0008F1ED000817
:10015000F1ED0008F1ED0008F1ED0008F1ED000807
:10016000F1ED0008F1ED0008F1ED0008F1ED0008F7
:10017000F1ED0008F1ED0008F1ED000800000000CD
:10018000F1ED0008F1ED0008F1ED0008F1ED0008D7
:10019000F1ED0008F1ED0008F1ED0008F1ED0008C7
:1001A000F1ED0008F1ED0008F1ED0008F1ED0008B7
:1001B000F1ED0008F1ED0008F1ED0008F1ED0008A7
:0801C000F1ED0008F1ED00086B
:1001D00010B5054C237833B9044B13B10448AFF381
:1001E00000800123237010BD283100200000000092
:1001F0000002010808B5034B1BB103490348AFF3E4
:10020000008008BD000000002C3100200002010821
:1002100010F8012B11F8013B012A28BF9A42F7D0B0
:10022000D01A7047034613F8012B002AFBD1181A85
:1002300001387047000000000000000000000000CE
:1002400001F0FF01102A2BDB10F0070F08D010F887
:10025000013B013A8B422DD010F0070F42B3F6D18B
:10026000F0B441EA012141EA014122F007047FF0A4
:1002700000070023F0E80256083C85EA010586EAFB
:10028000010685FA47F5A3FA87F586FA47F6A5FA37
:1002900087F68EB9EED1F0BC01F0FF0102F0070243
:1002A00032B110F8013B013A83EA010313B1F8D1EE
:1002B0000020704701387047002D06BF35460338CF
:1002C000073815F0010F07D1013015F4807F02BF08
:1002D000013015F4C03F0130F0BC0138704700BF59
:1002E00053B94AB9002908BF00281CBF4FF0FF319D
:1002F0004FF0FF3000F06EB9ADF1080C6DE904CE9F
:1003000000F006F8DDF804E0DDE9022304B07047F0
:100310002DE9F047089D04468C46002B40F0838071
:100320008A42174647D9B2FA82F242B1C2F120009E
:1003300024FA00F09140974040EA010C94404FEAC3
:100340001748230CBCFBF8F61FFA87FE08FB16C102
:1003500043EA014306FB0EF1994209D9FB1806F165
:10036000FF3080F01981994240F21681023E3B44F1
:100370005B1AA4B2B3FBF8F008FB103344EA034461
:1003800000FB0EFEA64509D93C1900F1FF3380F0B1
:100390000581A64540F2028102383C4440EA06400D
:1003A000A4EB0E0400261DB1D4400023C5E9004390
:1003B0003146BDE8F08702B9FFDEB2FA82F2002AC8
:1003C00050D1CB1B4FEA174E1FFA87F80126B3FB1B
:1003D000FEFC210C0EFB1C3341EA034108FB0CF32D
:1003E0008B4207D979180CF1FF3002D28B4200F210
:1003F000E9808446C91AA3B2B1FBFEF00EFB1011CE
:1004000043EA014408FB00F8A04507D93C1900F174
:10041000FF3302D2A04500F2D9801846A4EB0804AD
:1004200040EA0C40BFE78B4209D9002D00F0B180B3
:100430000026C5E9000130463146BDE8F087B3FA31
:1004400083F6002E4AD18B4202D3824200F2B8805A
:10045000841A61EB030101208C46002DA8D0C5E968
:10046000004CA5E7C2F1200320FA03F6974001FAF9
:1004700002F04FEA174ED9403043030CB1FBFEF6B1
:100480001FFA87F80EFB161143EA014306FB08F139
:10049000994204FA02F409D9FB1806F1FF3C80F0F6
:1004A0008D80994240F28A80023E3B445B1A81B2C1
:1004B000B3FBFEF00EFB103341EA034100FB08F3EF
:1004C0008B4207D9791800F1FF3C73D28B4271D966
:1004D00002383944CB1A40EA064678E7C6F1200CC8
:1004E00003FA06F422FA0CF31C4320FA0CF701FA83
:1004F00006F34FEA144E21FA0CF11F433B0CB1FBFB
:10050000FEF91FFA84F80EFB191143EA014109FBB9
:1005100008FA8A4502FA06F200FA06F308D96118C9
:1005200009F1FF3048D28A4546D9A9F10209214490
:10053000A1EB0A01BFB2B1FBFEF00EFB101147EABE
:10054000014700FB08F8B84507D9E71900F1FF316A
:100550002ED2B8452CD90238274440EA0940A7EBEF
:100560000807A0FB02894F45C64649461AD317D053
:100570005DB1B3EB0E0267EB010707FA0CFCF2402A
:100580004CEA0202F740C5E9002700263146BDE8E3
:10059000F0872E4628460BE70646E9E61846FDE6B4
:1005A0004345E5D2B8EB020E69EB04010138DFE701
:1005B0000846D2E760468DE78146B9E7664675E7AB
:1005C00030464AE7ACF1020C394413E702383C44A8
:1005D00024E700BF704700BFFEE7000010B4BFF380
:1005E0004F8FBFF36F8F1C4B0021C3F85012BFF326
:1005F0004F8FBFF36F8F5A6942F400325A61BFF3D5
:100600004F8FBFF36F8FC3F88410BFF34F8FD3F8B2
:100610008000C0F34E3200E01A46C0F3C90143F631
:10062000E07303EA421343EA81730B4CC4F860326F
:100630000B460139002BF2D1531E002AECD1BFF337
:100640004F8F636943F480336361BFF34F8FBFF310
:100650006F8F5DF8044B704700ED00E010B588B077
:1006600000230793069305930E4C0F4A02920F4AFC
:100670000192009305AB06AA07A9204604F084FB6B
:10068000204604F013FC94F8313013F0040F04D02A
:10069000204604F011FC08B010BD024804F02AFC0A
:1006A000F9E700BF389800202D4300089D1000088E
:1006B00000B587B00021084603F05AFEFFF7CEFFD1
:1006C00000F01CF9084E304600F0ACF801AC074DC4
:1006D0000FCD0FC42B682360314601A80CF003FD39
:1006E00000200CF01AFDFBE73898002018020108E2
:1006F000F0B585B001F036FE01258DF800501C4F95
:1007000001970D238DF8083003268DF80B60002427
:100710008DF80F408DF80E408DF80D508DF801408A
:100720008DF80A508DF809408DF80C40684601F0AC
:100730003BFE8DF80050019707238DF808308DF8A7
:100740000B608DF80F508DF80E408DF80D508DF820
:1007500001508DF80A408DF809408DF80C4068462C
:1007600001F022FE042001F00DFE05B0F0BD00BF37
:1007700000C0042000B593B0012301934FF4A023DF
:10078000029300230493022307934FF480020892FC
:10079000082209924FF4D8720A920B9309230C9302
:1007A00001A801F0EFF8B0B901F04CFDA8B90F2392
:1007B0000D9302230E9300230F934FF4A053109335
:1007C0004FF48053119307210DA801F05BFB30B962
:1007D00013B05DF804FBFFF7FFFEFFF7FDFEFFF728
:1007E000FBFE000000B587B0FFF782FFFFF7F6FEC3
:1007F00001F006FEFFF7BEFF002001F0C7FF022058
:1008000001F0C4FF01AC064D0FCD0FC42B6823606F
:10081000002101A80CF067FC0CF056FCFEE700BFBD
:100820002C02010808B590F8313013F0010F03D005
:10083000054B01221A7008BD034B05221A700220D5
:1008400001F0DCFFF7E700BF4431002010B584B0B1
:1008500004463AE020460AF0EFFAF8B9636A9B7959
:10086000042B25D9234B04221A7020460AF03AFCA7
:10087000214B03936FF07F43029303F52843C13369
:10088000019301AB02AA03A9204604F047FA022013
:1008900001F0C4FF002001F0B1FF13E0154B03226B
:1008A0001A70022001F0BAFF002001F0A7FF09E052
:1008B000022001F0A3FF05E020460AF013FC0D4BD7
:1008C00000221A70FA200CF02DFC0A4B1B78DBB2C8
:1008D000022BBFD0052BEFD0012BF3D10023636097
:1008E000A360E36020460AF01FFB024B02221A704D
:1008F000E8E700BF44310020C0A8000A00B583B07B
:10090000012300934FF4FA730022034903480CF0CB
:10091000C3F803B05DF804FBC90B00086C020108C2
:10092000F0B5ADF5077D0646002103910491ADF8C1
:1009300014104FF4007206A80EF0B6FA404B1A6875
:1009400001321A603F4903A80EF002FB03A906A872
:100950000EF01EFB06A8FFF765FC3B4D06AB1C180E
:1009600005F1300C2F460FCF20606160A260E3607C
:100970003D4610346745F5D13868206006A8FFF77A
:1009800051FC324D06AB1C1805F1300C2F460FCF31
:1009900020606160A260E3603D4610346745F5D198
:1009A00038682060BB88A38006A8FFF73BFC06AB35
:1009B00018440CF02CFD06A8FFF734FC244D06ABC0
:1009C0001C1805F1300C2F460FCF20606160A2602B
:1009D000E3603D4610346745F5D138682060BB8838
:1009E000A38006A8FFF71EFC1A4D06AB1C1805F1E4
:1009F000300C2F460FCF20606160A260E3603D465F
:100A000010346745F5D103CD206061602A88AB784A
:100A10002281A37200240094012340F23B620E491C
:100A2000304602F04FF906A8FFF7FCFB024600949F
:100A3000012306A9304602F045F90DF5077DF0BD0A
:100A4000483100207402010878020108AC02010854
:100A5000E40201081C0301080004010830B58BB052
:100A6000044609A902F09AFA38B1204602F037F993
:100A7000099803F059FB0BB030BD204602F034F961
:100A80000028F2D10DF11E0208A9099803F05CFBC1
:100A9000BDF81E30042BE8D9089D05223E492846A2
:100AA0000EF08DFA0028E0D11B223C4928460EF0BA
:100AB00086FA002830D01E22394928460EF07FFAE7
:100AC000002838D01D22374928460EF078FA002831
:100AD00040D01822344928460EF071FA002848D038
:100AE0001322324928460EF06AFA30B10622304904
:100AF00028460EF064FA00283FD12E4902A80BF0D8
:100B0000F1FF00230093039A0299204602F0DAF8DD
:100B100002A80CF00BF8A8E7274902A80BF0E2FFA7
:100B200000230093039A0299204602F0CBF802A812
:100B30000BF0FCFF99E7214902A80BF0D3FF00233B
:100B40000093039A0299204602F0BCF802A80BF029
:100B5000EDFF8AE71A4902A80BF0C4FF00230093B7
:100B6000039A0299204602F0ADF802A80BF0DEFFCE
:100B70007BE72046FFF7D4FE77E7124902A80BF087
:100B8000B1FF00230093039A0299204602F09AF8DD
:100B900002A80BF0CBFF68E75803010860030108C7
:100BA0007C0301089C030108BC030108D803010869
:100BB000EC030108DC030108640301088003010859
:100BC000A0030108F403010810B582B00022114609
:100BD000102001F037FF28B104465022002101F017
:100BE000AFFF08B102B010BDFF21204601F0CEFFDB
:100BF00005E00198FFF732FF019801F091FF01A98C
:100C0000204602F081F80028F9D1F2E700B589B05A
:100C100001460022362001F065FB362001F094FBEE
:100C2000184B1A6C42F010021A641B6C03F010038C
:100C30000193019B02A903A801F0F0F9069BC3B937
:100C400001F0DCF903461048A0FB03239B0C013B99
:100C50000E480F4A026040F2E732C2604360002350
:100C60000361836001F074FD38B1012009B05DF8C3
:100C700004FB01F0C3F94300E5E7044801F0FAFB87
:100C8000F4E700BF0038024083DE1B437098002069
:100C90000010004008B501F0C5FB08BD08B50248CA
:100CA00001F002FC08BD00BF709800207047FEE70D
:100CB000FEE7FEE7FEE7704708B50CF09FFB08BDB6
:100CC00008B5024800F056FC08BD00BFB0980020EF
:100CD0002DE9F84F8B462C4BDE6AD6F808A000248D
:100CE0002746BBF1000F32D03368002B35DBBBF851
:100CF0000A90002504EB090840F2F453984519D9ED
:100D0000DBF8041040F2F452121B29440AEB0400F1
:100D10000EF0A2F8F6683368002B21DBD6F808A0A5
:100D2000A8F2F4592D1B05F2F4553F1B07F2F457B6
:100D30000024DFE7DBF804104A4629440AEB0400EC
:100D40000EF08AF84F44DBF800B04446C9E7394654
:100D50000D4800F031FB002004E06FF0070001E0D7
:100D60006FF00700084B1B6841F214029A5812F00A
:100D7000200F07D041F214022021995041F20402C1
:100D800000219950BDE8F88FB0980020F0B589B0E7
:100D90000446304B93E803000690ADF81C102E4833
:100DA0002E4B036006AB4361012343604FF4804246
:100DB00082604FF40062C2604FF4000202628361FD
:100DC0000023C361038200F091FC28B994F831300C
:100DD00043F0040384F831301F4F0423204A214993
:100DE000384600F078FA04231F4A2049384600F0BC
:100DF000ACFA062384F83030022384F82A3000232A
:100E000084F82B3084F82C3084F82D3084F82E3080
:100E100084F82F3040F2DC52228594F8312042F0E1
:100E20000A0284F831200593012105A80CF0E4F9A9
:100E30000F4B18606D460F4E0FCE0FC533682B60F9
:100E4000214668460CF04FF9384600F079FD09B0AC
:100E5000F0BD00BF40020108B098002000800240B1
:100E600058190020D8180020080100208800002010
:100E70004C310020480201082DE9F047334800F0CA
:100E80002BFB00285ED1314B998FD3F8408079B984
:100E90004FF0000A2D4B1B6B00212C4A926B8A42AB
:100EA0003BD91A6842F000421A60DB680131F4E76E
:100EB0004FF4C17204F0A0F982460028EAD0234B17
:100EC0001F6B8146002421E0D9F8040040F2F4525F
:100ED000121B08EB040130440DF0BEFFFF68D7F889
:100EE0000880A5F2F452361B06F2F4560024A51829
:100EF00040F2F4539D42E7D8D9F8040008EB04010E
:100F000030440DF0A9FFD9F800902C46B9F1000F3C
:100F1000C0D0B9F80A200026E9E70C4B00229A63FA
:100F20001B6841F214029A5812F0800F07D041F268
:100F300014028021995041F2080200219950504634
:100F4000BDE8F0874FF0000AF9E700BFB098002035
:100F500038B505464FF0FF310E4B18680CF064F9B8
:100F60000028F7D107E0204604F0DEF80A480BF02D
:100F70008EFD002CEED008480BF082FD2846FFF7CE
:100F80007BFF04460028F1D02B69294698470028AA
:100F9000ECD0E8E74C310020FC98002030B58DB053
:100FA000354C236B43F001032363236B03F00103F0
:100FB0000093009B236B43F002032363236B03F036
:100FC00002030193019B236B43F004032363236B10
:100FD00003F004030293029B236B43F0400323635B
:100FE000236B03F040030393039B03230A93022321
:100FF0000893002509950B230B938623079307A9D4
:101000001E4801F029F84FF40053079307A91C4824
:1010100001F022F83223079307A91A4801F01CF8BF
:1010200042F60403079307A9174801F015F82A466A
:1010300007213D2001F056F93D2001F085F9236B91
:1010400043F000732363236B03F000730493049B4A
:10105000236B43F080632363236B03F0806305936A
:10106000059B236B43F000632363236B03F0006352
:101070000693069B0DB030BD0038024000000240D0
:1010800000040240000802400018024008B5024B6C
:1010900018680CF0F9F808BD4C31002010B5044672
:1010A00070B1732384F83230742384F83330084BE2
:1010B0006361084BA3612046FFF768FE002010BD66
:1010C000054B4FF4F772054905480DF0F5FEE8E7CA
:1010D0000DB90008D10C0008440A01085C0A010897
:1010E0006C0A010808B501F0A9F908BD5079137917
:1010F00043EA002307480B50D07893781B0443EA57
:101100000063507843EA002312781343024A8B505D
:10111000704700BF4080024044800240016841F2B5
:1011200018028B5843F400538B507047016841F20A
:1011300018028B5843F002038B50704770B59EB075
:10114000044629B14FF40063C3604FF480438360C9
:10115000E369002B68D14FF48063079321680B6823
:10116000374A1A40A368E06803430798034343F4EF
:10117000007313430B6023681D68012001F064F9BC
:1011800023681D60236840225A6023685D6801203F
:1011900001F05AF923685D60236800259D6023688B
:1011A000DD602268936923F0BE031B041B0C43F02F
:1011B0008003936123689E69012001F045F923684B
:1011C0009E612368DD612368DD69012001F03CF93F
:1011D0002368DD61216841F218054B59194A1A400C
:1011E000194B13434B5123685E59012001F02CF930
:1011F00023685E51236803F58053144A1A602368FC
:1012000003F580531D68012001F01EF9236803F5E2
:1012100080531D60A369012B09D06269002120461B
:10122000FFF764FF1EB070BD0023079396E72168A7
:1012300041F21C028858064B03438B50EDE700BF78
:101240000F8120FF233FDEF8040020028020C1022E
:101250004000010010B582B00446002301930268EB
:10126000136843F00803136003681B6801930120AF
:1012700001F0EAF82368019A1A6002B010BD10B5B7
:1012800082B00446002301930268136843F004030C
:10129000136003681B680193012001F0D5F82368EF
:1012A000019A1A6002B010BD30B583B00446002325
:1012B0000193026841F21805535943F480135351C6
:1012C00003685B590193012001F0BEF82368019A7D
:1012D0005A5103B030BDF0B490F84540012C32D0E3
:1012E000012480F84540022480F84440C162002473
:1012F00001E0F16001349C4218D2670101EB441611
:101300004FF48015CD5140F2F45505FB0425B5602E
:10131000C5691DB9CD5945F44005CD515D1EA542A5
:10132000E7D9651C01EB4515F560E3E7026841F27A
:101330001003D150012380F84430002380F8453059
:101340001846F0BC70470220FBE7F0B490F8454027
:10135000012C2FD0012480F84540022480F844401D
:101360008162002401E0E96001349C4215D26601EB
:1013700001EB44154FF000478F5144F2F4566E6074
:1013800040F2F45606FB0426AE605E1EA642EAD981
:10139000661C01EB4616EE60E6E7026841F20C03BC
:1013A000D150012380F84430002380F8453018469E
:1013B000F0BC70470220FBE790F84530012B00F0AD
:1013C0008580012380F84530022380F84430B1B194
:1013D000C36A1A68002A1ADB30B440F2F452914210
:1013E0001DD93B4CA4FB0124A40A40F2F45202FB99
:1013F000141202B10134012C11D0002348E0012362
:1014000080F84430002280F84520184670471223A7
:1014100080F84430002380F84530012070471A6876
:1014200042F040521A60C36AC1F30C015960C26AAB
:10143000136843F000431360C36ADB68C362036848
:1014400041F214029A5812F0040F08D041F214022B
:1014500004219950026841F204030021D150012374
:1014600080F84430002380F84530184630BC70477F
:10147000C26A40F2F4555560621E9A4217D0C56A9E
:101480002A6842F000422A60C26AD268C26201330E
:101490009C42D4D9C56A2A6822F040522A60002BA7
:1014A000E6D1C56A2A6842F080522A60E0E7C56A40
:1014B0002A6842F000522A60064A02FB041202F235
:1014C000F452C56AC2F30C026A60D8E70220704782
:1014D0000BB002AC0CFAFFFF90F84530012B45D061
:1014E000012380F84530022380F84430002104E0D5
:1014F000036301228263DB688362836A1A68002ABD
:101500002CDB03292AD801311A6802F44072B2F5A3
:10151000007FEDD01A6812F4407F05D1826B013252
:101520008263DB688362E8E74363826B0132826334
:10153000012A11D01A68C2F30D42043AC263026B49
:1015400092680264DB688362012380F844300023E0
:1015500080F84530184670470363EBE7012380F8B5
:101560004430002280F8452018467047022070471A
:101570007047704710B50446036841F214029A5848
:1015800012F0400F11D141F214029B5813F0010FD9
:1015900019D1226841F214034FF48031D1502268EE
:1015A000D35813F4004F1BD110BDFFF76FFD226815
:1015B00041F214034021D150012384F84430002328
:1015C00084F84530E5E7FFF7D3FF2168012341F2B6
:1015D00014028B5084F84430002384F84530D8E757
:1015E0002046FFF7C6FF226841F214034FF4004182
:1015F000D150012384F84430002384F84530D3E7E8
:10160000F8B590F84430DBB2822B33D0054616464D
:10161000822380F844300068026902F01C022B8AA1
:10162000DB029BB213438C0104F4F8641C4344F0C6
:101630000104046100F002FF074614F0010F10D00E
:1016400000F0FCFEC31BB3F5803F02D22B681C697F
:10165000F3E7012385F84430002385F84530032063
:1016600007E02B685B699BB23360012385F8443047
:101670000020F8BD0220FCE790F84430DBB2422B9A
:1016800032D070B50546422380F844300668306990
:1016900000F01C002B8ADB029BB203438C0104F494
:1016A000F8641C4344F0030492B272612B681C611D
:1016B00000F0C4FE064614F0010F10D000F0BEFE8C
:1016C000831BB3F5803F02D22B681C69F3E701232B
:1016D00085F84430002385F84530032003E00123DA
:1016E00085F84430002070BD0220704770B582B08C
:1016F00000230193002800F00D81044690F8443047
:10170000002B32D0844B5A6C42F480425A645B6C9A
:1017100003F480430093009B804B5A6822F400023C
:101720005A605A68216A0A435A60236803F5805355
:101730001A6842F001021A6000F080FE0546236834
:1017400003F58052126812F0010F13D000F076FEFC
:10175000401BB0F5FA7FF2D9032584F844500023EA
:1017600084F84530284602B070BD80F84530FFF758
:1017700015FCC7E71D6925F01C0500F039FC684B16
:101780000344684A934256D245F0080523681D6118
:101790004FF4004200212046FFF76EFF0546002867
:1017A00061D140F6FF7000F04FFE6368002B00F03F
:1017B000918000F043FE064601AA01212046FFF772
:1017C0001FFF00F03BFE801B41F28833984252D845
:1017D000019B13F0040FEFD04FF4805200212046FC
:1017E000FFF74AFF002852D100F028FE064601AA62
:1017F00001212046FFF704FF00F020FE801B41F28C
:10180000883398424BD8019B13F0200FEFD001AAE8
:101810001F212046FFF7F4FE00284CD1019B13F056
:10182000100F50D04FF40062E26013F0040F4DD05F
:101830000023A3605EE03C4B03443C4A934202D841
:1018400045F00C05A2E73A4B03443A4A93429DD334
:10185000394B0344394A934202D845F0040595E7D1
:1018600045F0100592E701212046FFF767FC0125AE
:1018700084F8445076E701212046FFF75FFC0123FE
:1018800084F84430002384F8453003256AE70121B9
:101890002046FFF753FC012584F8445062E70121FC
:1018A0002046FFF74BFC012384F84430002384F8E2
:1018B0004530032556E701212046FFF73FFC01256F
:1018C00084F844504EE70022E260AEE74FF48043D4
:1018D000A3600FE0E268C2F3CF02A368C3F34F0333
:1018E0001A4300212046FFF7C7FE58B940F6FF70A3
:1018F00000F0AAFD00212046FFF720FC012384F818
:1019000044302FE701212046FFF718FC012584F819
:10191000445027E7012525E7003802400038014000
:1019200000D3CEFEC0E1E40040F1E9FD3F787D0147
:1019300000796CFC005A6202001F0AFA7FF0FA027A
:1019400038B590F84530012B1AD00446012580F8AF
:101950004550022380F84430FFF77CFC2046FFF717
:101960008EFC2046FFF7A0FC2046FFF7D7FB204661
:10197000FFF7DCFB84F84450002084F8450038BDB4
:101980000220FCE7002800F0FF8170B582B0044619
:10199000036813F0010F29D0A74B9B6803F00C03D9
:1019A000042B1AD0A44B9B6803F00C03082B0FD018
:1019B0006368B3F5803F40D0002B54D19E4B1A682A
:1019C00022F480321A601A6822F480221A6039E008
:1019D000994B5B6813F4800FEAD0974B1B6813F4A4
:1019E000003F03D06368002B00F0D081236813F020
:1019F000020F74D0904B9B6813F00C0F5ED08E4B8F
:101A00009B6803F00C03082B53D0E368002B00F015
:101A10008980894A136843F00103136000F00EFDCA
:101A20000546854B1B6813F0020F72D100F006FDCE
:101A3000401B0228F5D90320ADE17F4A136843F427
:101A40008033136063682BB300F0F8FC05467A4BD3
:101A50001B6813F4003FC9D100F0F0FC401B642860
:101A6000F5D9032097E1B3F5A02F09D0724B1A687E
:101A700022F480321A601A6822F480221A60E1E7A8
:101A80006D4B1A6842F480221A601A6842F4803260
:101A90001A60D7E700F0D2FC0546674B1B6813F4C9
:101AA000003FA3D000F0CAFC401B6428F5D90320F6
:101AB00071E1614B5B6813F4800FA6D15E4B1B682C
:101AC00013F0020F03D0E368012B40F061815A4A02
:101AD000136823F0F803216943EAC1031360236804
:101AE00013F0080F46D0636983B3534A536F43F032
:101AF0000103536700F0A2FC05464F4B5B6F13F0E8
:101B0000020F37D100F09AFC401B0228F5D90320C0
:101B100041E1494A136823F0F803216943EAC1030C
:101B20001360DCE7444A136823F00103136000F0FC
:101B300085FC0546404B1B6813F0020FCFD000F028
:101B40007DFC401B0228F5D9032024E13A4A536F5B
:101B500023F00103536700F071FC0546364B5B6FC1
:101B600013F0020F06D000F069FC401B0228F5D9E3
:101B7000032010E1236813F0040F7DD02E4B1B6C63
:101B800013F0805F0BD12C4B1A6C42F080521A6418
:101B90001B6C03F080530193019B012500E000259D
:101BA000264B1B6813F4807F0ED0A368012B1FD037
:101BB000002B35D1204B1A6F22F001021A671A6FE1
:101BC00022F004021A6718E01C4A136843F4807379
:101BD000136000F033FC0646184B1B6813F4807F3B
:101BE000E3D100F02BFC801B6428F5D90320D2E060
:101BF000114A136F43F001031367A36853B300F056
:101C00001DFC06460C4B1B6F13F0020F33D100F086
:101C100015FC801B41F288339842F3D90320BAE0C7
:101C2000052B0DD0044B1A6F22F001021A671A6FB0
:101C300022F004021A67E0E700380240007000401A
:101C40005C4B1A6F42F004021A671A6F42F00102ED
:101C50001A67D2E700F0F2FB0646564B1B6F13F0F3
:101C6000020F08D000F0EAFB801B41F28833984253
:101C7000F3D903208FE0FDB9A369002B00F08A801F
:101C80004C4A926802F00C02082A58D0022B19D054
:101C9000484A136823F08073136000F0CFFB0446BA
:101CA000444B1B6813F0007F47D000F0C7FB001BBC
:101CB0000228F5D903206EE03E4A136C23F08053CE
:101CC0001364D9E73B4A136823F08073136000F074
:101CD000B5FB0546374B1B6813F0007F06D000F0BC
:101CE000ADFB401B0228F5D9032054E0E369226ACA
:101CF0001343626A43EA8213A26A5208013A43EA32
:101D00000243E26A43EA026343F00053294A536004
:101D1000136843F08073136000F090FB0446254B7A
:101D20001B6813F0007F06D100F088FB001B02281F
:101D3000F5D903202FE000202DE000202BE01D4AE4
:101D40005268012B29D002F48003E1698B4226D12D
:101D500002F03F03216A8B4223D1616A47F6C073C8
:101D60001340B3EB811F1ED102F44031A36A5B081C
:101D7000013BB1EB034F18D102F07062E36AB2EBA2
:101D8000036F14D1002006E001207047012002E01B
:101D9000012000E0002002B070BD0120FBE701201F
:101DA000F9E70120F7E70120F5E70120F3E701203B
:101DB000F1E700BF00380240F8B52F4B9B6803F0F5
:101DC0000C03042B53D0082B53D12B4B5A6802F031
:101DD0003F025B6813F4800F28D0274B5B68C3F386
:101DE000881358010021C01A61F100018E0146EAF2
:101DF000906687013C1A66EB0105E90041EA5471DF
:101E0000E000C01841F100014B0243EAD053440204
:101E1000204619460023FEF763FA174B5B68C3F3AD
:101E2000014301335B00B0FBF3F023E0124B5B682E
:101E3000C3F388135C010025E41A65F10005AE01C7
:101E400046EA9466A701381B66EB0501CC0044EA1C
:101E50005074C500E81844F100018B0243EA905326
:101E60008402204619460023FEF73AFAD5E70348D4
:101E700000E00348F8BD00BF0038024000127A00BD
:101E80000024F400002800F0A08070B50D46044640
:101E9000524B1B6803F00F038B420BD24F4A13685F
:101EA00023F00F030B431360136803F00F038B42FF
:101EB00040F08D80236813F0020F17D013F0040F49
:101EC00004D0474A936843F4E0539360236813F0C7
:101ED000080F04D0424A936843F460439360404A39
:101EE000936823F0F003A1680B439360236813F019
:101EF000010F31D06368012B20D0022B25D0384A46
:101F0000126812F0020F64D035498A6822F0030289
:101F100013438B6000F092FA0646314B9B6803F046
:101F20000C036268B3EB820F16D000F087FA801BB7
:101F300041F288339842F0D9032045E0284A1268DC
:101F400012F4003FE0D101203EE0254A126812F071
:101F5000007FD9D1012037E0204B1B6803F00F032D
:101F6000AB420AD91D4A136823F00F032B431360B9
:101F7000136803F00F03AB422DD1236813F0040F55
:101F800006D0174A936823F4E053E1680B4393604B
:101F9000236813F0080F07D0114A936823F46043B5
:101FA000216943EAC1039360FFF706FF0C4B9B686E
:101FB000C3F303130B4AD35CD8400B4B18600B4B95
:101FC0001868FEF723FE002070BD01207047012035
:101FD000FAE70120F8E70120F6E700BF003C0240E5
:101FE000003802409C0A0108140000200400002070
:101FF000014B1868704700BF1400002008B5FFF7B8
:10200000F7FF044B9B68C3F38223034AD35CD84099
:1020100008BD00BF00380240AC0A01080F2303606E
:102020000B4B9A6802F0030242609A6802F0F002D9
:1020300082609A6802F4E052C2609B68DB0803F495
:10204000E0530361034B1B6803F00F030B60704701
:1020500000380240003C024000230F2B00F2E380D6
:10206000F0B583B039E0092200E00022B2403A43E3
:1020700002346D4E46F824206C4A1468EA4324EA80
:1020800005064F6817F4803F01D045EA0406674C07
:102090002660646802EA04064F6817F4003F01D026
:1020A00045EA0406614C6660A46802EA04064F68CB
:1020B00017F4801F01D045EA04065C4CA660E46872
:1020C00022404E6816F4001F01D045EA0402574C26
:1020D000E26001330F2B00F2A48001229A400C68C9
:1020E00004EA020532EA0404F3D14C68661E112C9E
:1020F00018BF012E01D9122C12D186685F0003246B
:10210000BC4026EA0406CC68BC4034438460466880
:1021100026EA02064C68C4F300129A403243426039
:10212000C7685E000324B440E24327EA04078C68D2
:10213000B4403C43C4604C68122C18BF022C13D12D
:10214000DF08083750F827E003F007044FEA840C53
:102150000F2404FA0CF42EEA040E0C6904FA0CF4B1
:1021600044EA0E0440F82740046814404A6802F02C
:102170000302B240224302604A6812F0805FA8D096
:102180002B4A546C44F480445464526C02F48042F0
:102190000192019A9C08A61C234A52F8267003F06B
:1021A000030296000F22B24027EA0207214A90421A
:1021B0003FF45BAF02F58062904222D002F580626C
:1021C000904220D002F5806290421ED002F58062DB
:1021D00090421CD002F5806290421AD002F58062D3
:1021E000904218D002F58062904216D002F58062CB
:1021F000904214D002F5806290423FF434AF0A223C
:1022000034E7012232E7022230E703222EE70422DC
:102210002CE705222AE7062228E7072226E70822DC
:1022200024E703B0F0BD704700380140003C014096
:1022300000380240000002400AB181617047090481
:102240008161704710B582B01B4B1A6C42F080520E
:102250001A641B6C03F080530193019B174A1368A7
:1022600043F48033136000F0E9F80446134B5B68D5
:1022700013F4803F08D100F0E1F8001BB0F57A7F3D
:10228000F4D9032002B010BD0C4A136843F40033A4
:10229000136000F0D3F80446084B5B6813F4003F6A
:1022A00007D100F0CBF8001BB0F57A7FF4D90320FA
:1022B000E8E70020E6E700BF003802400070004079
:1022C0000649CB6823F4E0631B041B0C000200F4F6
:1022D000E0600343024A1A43CA60704700ED00E021
:1022E0000000FA0530B4154BDB68C3F30223C3F1D9
:1022F0000704042C28BF04241D1D062D14D9033BFC
:102300004FF0FF3505FA04F421EA0401994005FA7B
:1023100003F322EA03031943002807DB0901C9B2CA
:10232000074B195430BC70470023E9E700F00F0059
:102330000901C9B2034B1954F4E700BF00ED00E0F6
:1023400000E400E014ED00E0002807DB00F01F02CD
:10235000400901239340024A42F82030704700BFF1
:1023600000E100E0BFF35F8F044A536A23F4803337
:102370005362034B00225A60704700BF00ED00E03B
:1023800090ED00E040F00100054B5860054A536AAB
:1023900043F480335362BFF34F8FBFF36F8F7047A7
:1023A00090ED00E000ED00E04278134B9A60037876
:1023B000EBB14368104AD360017BC37A1B0643EA42
:1023C0000173817A43EAC143417B43EA8143817BC4
:1023D00043EA4143C17B43EA0143417A43EA012393
:1023E000017A43EA410301780B4313617047024BC2
:1023F0000022DA601A61704790ED00E0704700003B
:1024000008B5074A136843F4007313600320FFF70D
:1024100057FF0F20FEF7FAFBFFF7F0FF002008BD83
:10242000003C0240034A1168034B1B780B441360C5
:10243000704700BFF898002000000020014B18688A
:10244000704700BFF898002038B50446FFF7F6FF44
:102450000546B4F1FF3F02D0044B1B781C44FFF744
:10246000EDFF401BA042FAD338BD00BF00000020A2
:10247000704700000268D36843F00103D36002682C
:102480009168064B0B40062B18BFB3F5803F03D075
:10249000136843F001031360002070470700010038
:1024A000704770477047704710B5044603681A6953
:1024B00012F0020F11D0DA6812F0020F0DD06FF097
:1024C00002021A610123037703689B6913F0030F6B
:1024D00079D0FFF7E6FF0023237723681A6912F00B
:1024E000040F12D0DA6812F0040F0ED06FF004025D
:1024F0001A610223237723689B6913F4407F68D015
:102500002046FFF7CEFF0023237723681A6912F0D5
:10251000080F12D0DA6812F0080F0ED06FF0080220
:102520001A61042323772368DB6913F0030F57D064
:102530002046FFF7B6FF0023237723681A6912F0BD
:10254000100F12D0DA6812F0100F0ED06FF01002D8
:102550001A61082323772368DB6913F4407F46D090
:102560002046FFF79EFF0023237723681A6912F0A5
:10257000010F03D0DA6812F0010F3FD123681A6906
:1025800012F0800F03D0DA6812F0800F3DD123687B
:102590001A6912F4807F03D0DA6812F0800F3BD101
:1025A00023681A6912F0400F03D0DA6812F0400F66
:1025B00039D123681A6912F0200F03D0DA6812F0BB
:1025C000200F37D110BDFFF76BFF2046FFF76AFFE2
:1025D00081E72046FFF764FF2046FFF763FF92E79D
:1025E0002046FFF75DFF2046FFF75CFFA3E720468C
:1025F000FFF756FF2046FFF755FFB4E76FF00102E3
:102600001A612046FEF746FBB8E76FF080021A61B8
:10261000204600F0B8F8BAE76FF480721A612046DD
:1026200000F0B2F8BCE76FF040021A612046FFF7F5
:102630003AFFBEE76FF020021A61204600F0A2F8D0
:10264000C0E7000070B403683A4CA04214BF0024F5
:102650000124B0F1804F14BF224644F00102AAB910
:10266000354DA84214BF00250125344EB0420DD08F
:1026700065B905F1804505F58235A84214BF0025EE
:10268000012506F50066B04200D01DB123F07003AD
:102690004D682B43002A33D1274A904214BF0022B1
:1026A0000122264DA8422BD052BB02F1804202F5F6
:1026B0008232904214BF0022012205F50065A84233
:1026C0001ED0EAB91E4A904214BF0022012205F52D
:1026D0009A35A84214D09AB91A4A904214BF0022DF
:1026E000012205F50065A8420AD04AB9164A90426F
:1026F00014BF00220122A5F59635A84200D01AB1D8
:1027000023F44073CA68134323F080034A691343D8
:1027100003608A68C2620A6882620C4B984214BFE6
:10272000234644F001030BB10B69036301234361AA
:1027300070BC7047000001400008004000040040E9
:102740000044014000180040002000400004014007
:10275000B0B110B5044690F83D3063B1022384F85F
:102760003D30214651F8040BFFF76CFF012384F83C
:102770003D30002010BD80F83C30FFF779FEEDE7DA
:10278000012070477047704770470000F0B589B06E
:10279000044608BB164B1A6B42F002021A631B6B0D
:1027A00003F002030193019B124B33F8146003966C
:1027B0000123049300270597032306930E4D03A9D5
:1027C00055F82400FFF748FC3A46314655F82400F6
:1027D000FFF732FD09B0F0BD054B1A6B42F0020263
:1027E0001A631B6B03F002030293029BDCE700BF3A
:1027F00000380240940A01080800002008B50122B0
:10280000044B33F81010044B53F82000FFF714FD6D
:1028100008BD00BF940A01080800002008B5002286
:10282000044B33F81010044B53F82000FFF704FD5D
:1028300008BD00BF940A01080800002010B40F4A28
:10284000D2F8883043F47003C2F888300C4B196812
:1028500041F001011960002098601C68094921407D
:10286000196009495960196821F480211960D860FC
:102870004FF0006393605DF8044B704700ED00E09B
:1028800000380240FFFFF6FE1030002470B5044609
:1028900043890E2B1CD90D46C37B1BB991F83430EC
:1028A0000133C37360688689037813F0010F0AD07F
:1028B000012B12D006221E490CF0C0FA18B9637B16
:1028C00043F008036373082E12D0B6F5C16F1FD012
:1028D000204602F029FC002070BD4378002BF2D185
:1028E00083785E2BEFD1637B43F010036373EAE7D9
:1028F00095F8313013F0080FEAD00E21204602F08F
:10290000C9FB0028E4D12946204609F00DFAE2E788
:1029100095F8313013F0080FDAD00E21204602F07E
:10292000B9FB0028D4D12946204608F0F5FDD2E7AE
:102930001C0B01082DE9F04105460C4616461F46C2
:10294000BDF8180001F056FD80460E21204602F029
:102950009CFBE8B96168A1F80C803B680B60BB8800
:102960008B803368C1F80630B3884B8195F83030DE
:10297000062B05D1AB69214628469847BDE8F08172
:10298000054B4FF49972054905480CF095FAF1E7AB
:102990006FF00100F2E700BFB40A0108E80A01087D
:1029A0006C0A010810B50C460A680C3201F0D0FC24
:1029B00000B110BD94F90400FBE7000010B560B150
:1029C0000C461146037803F0F003102B05D110607C
:1029D00094600748FFF7E6FF10BD064B40F2A722C0
:1029E000054906480CF068FA6FF00F00F4E700BFE5
:1029F000493F00082C0B01085C0B01086C0A010818
:102A000000B589B060B100908DF8081029238DF8C9
:102A1000093069460748FFF7C5FF09B05DF804FBB8
:102A2000054B40F24742054905480CF045FA6FF066
:102A30000F00F2E75D4000082C0B0108800B010835
:102A40006C0A010870B588B00C46114600F0F2FF20
:102A5000054638B18DF80840009069462048FFF7D8
:102A6000A1FF10B9284608B070BD6B682BB11D4B93
:102A7000A3221D491D480CF01FFA05F11004204641
:102A800009F08FFFB0B105F1140009F08AFFC0B959
:102A900005F10C06304609F0CDFFC8B1304609F00B
:102AA000C4FF204609F02AFF2946072002F098F8C3
:102AB0000025D7E70B4BA4220D490C480CF0FCF97C
:102AC000E1E7084BA6220B4908480CF0F5F9DFE7CF
:102AD000044BA922084905480CF0EEF9DEE700BFD7
:102AE000213A00082C0B01089C0B01086C0A010814
:102AF000C00B0108D80B0108FC0B010860B100B540
:102B000089B0009029238DF8093069460348FFF702
:102B100049FF09B05DF804FB00207047E53C000860
:102B200038B550B10546FFF7E9FF044608B1204625
:102B300038BD284600F0C0FFF9E70024F7E70000A1
:102B400000B589B060B10346A1B100930291ADF820
:102B50000C2069460848FFF725FF09B05DF804FB23
:102B6000064B4FF49C72064906480CF0A5F96FF02D
:102B70000F00F2E70449E8E7353E00082C0B010896
:102B8000180C01086C0A0108AC37010800B589B0BF
:102B900038B1009069460848FFF704FF09B05DF8B6
:102BA00004FB064B40F2BB12054906480CF084F9C1
:102BB0006FF00F00F2E700BF713E00082C0B010818
:102BC000340C01086C0A0108F0B589B00E9E78B18A
:102BD0008446007800F0F000102813D19CF818000B
:102BE00010F0020F18D113F0040F1FD0012014E0D1
:102BF0002E4B40F2EE322E492E480CF05DF96FF06C
:102C00000F051FE0294B40F2EF322B4929480CF009
:102C100053F96FF0050515E0012000F0FF07002EC5
:102C200018BF0020002838D1044602E00020F4E755
:102C30000130824209DD01EBC0056D686419F7D3EC
:102C40006FF00505284609B0F0BD4CB3002C02DA40
:102C500046B36FF00044CDF800C00291ADF80C20EF
:102C6000002204928DF81C300594069269461348A0
:102C7000FFF798FE05460028E4D10EB1069B3360AD
:102C8000002FDFD1069BA342DCD0084B4FF48662B5
:102C90000B4908480CF010F9D4E76FF00505D1E7AF
:102CA0000025CFE76FF00505CCE700BF2C0B01082E
:102CB000540C01086C0A0108700C0108853F0008DB
:102CC000940C010800B585B002910392069A009217
:102CD000012202A9FFF778FF05B05DF804FB08B5F3
:102CE0000321FFF78DFE08BD38B550B1044609F049
:102CF000E5FE94F908500023237209F0EBFE284604
:102D000038BD0025FBE70000F0B583B069B104468B
:102D10000E4600230B6090B1FFF7E6FF05468DF8E5
:102D20000700B0B1284603B0F0BD264B40F2E112D7
:102D3000254926480CF0C0F86FF00F05F2E7214B4B
:102D400040F2E312224921480CF0B6F86FF00F056B
:102D5000E8E704F11407384609F023FE40B3237E68
:102D600013F0010F27D113F0020F09D0694638463E
:102D700009F004FEB0F1FF3F07D16FF00605D1E77F
:102D800000226946384609F0CCFD236A1BB10022B7
:102D90000121204698470DF10701009800F012FE2E
:102DA00018B9009B53B13360BCE79DF90750B9E7F0
:102DB0006FF00E05B6E76FF00E05B3E76FF00E0586
:102DC000B0E700BF2C0B0108B80C01086C0A010821
:102DD000D80C0108F0B583B000230193002937D047
:102DE000044616460F4600230B6000283AD000F137
:102DF0001005284609F0D5FD00283DD0237E13F0AC
:102E0000020F09D116F0040F06D113F0010F03D100
:102E100094F90830002B43D001A9284609F0AEFDF3
:102E2000B0F1FF3F30D0237803F0F003102B3DD0FA
:102E3000019B002B4AD0019B1B681A89236A13B19E
:102E4000012120469847019B3B60002003B0F0BD64
:102E5000244B4FF41272244924480CF02DF86FF0E3
:102E60000F00F3E71F4B40F24A2221491F480CF0A4
:102E700023F86FF00F00E9E72046FFF735FF002841
:102E8000E4D16FF00A00E1E72046FFF72DFF0028AC
:102E9000DCD1237E13F0010F20D06FF00A00D5E7BC
:102EA000002201A9284609F03CFDBCE70DF1030111
:102EB000019800F087FD30B19DF9030010F10F0F6C
:102EC000C4D10020C2E7019B1A89B7E7054B40F245
:102ED0009122084905480BF0EFFFACE76FF00600C0
:102EE000B4E700BF2C0B0108F80C01086C0A0108BC
:102EF000180D0108340D01082DE9F04188B0044691
:102F00000F461546103009F04CFD00283FD0237EB7
:102F100094F91820002A1DDB05F008082A463946D6
:102F20002046FFF757FF064620BB3F68B8F1000F69
:102F300005D11FB339896A462046FFF73FFDCFB957
:102F400015F0100F09D0237E43F0800323766FF035
:102F500006060FE003F07F032376236A1BB10022ED
:102F6000012120469847636853B92046FFF7BCFE0D
:102F7000064678B1304608B0BDE8F0810121DAE7B5
:102F800001212046FFF73CFD6FF00E06F2E76FF0DF
:102F90000A06EFE76FF00D06ECE7000070B582B0AF
:102FA00011B304460D4600230B6038B3037803F0D9
:102FB000F003102B3CD100230193062001F0F6FD15
:102FC0000646002831D0002201A92046FFF794FFD1
:102FD0000446E8B9019B03B3019B3360736000238F
:102FE000B381B3602E6027E0154B40F26332154980
:102FF00015480BF061FF6FF00F041DE0104B40F21D
:103000006532124910480BF057FF6FF00F0413E0C0
:103010003146062001F0E4FD0EE0094B40F2793222
:103020000B4909480BF048FFD6E74FF0FF3403E0A7
:103030000022FFF7CFFE0446204602B070BD00BF5D
:103040002C0B0108F80C01086C0A0108180D010886
:103050006032010810F10E0F11D010F10D0F10D0D9
:1030600010F10F0F0FD008B90020704708B5074BBB
:103070007D22074907480BF01FFF002008BD0648C6
:103080007047064870470648704700BF400D01086A
:10309000700D01086C0A01089E1101089C110108BD
:1030A0009D1101082DE9F0410446154698460E464B
:1030B00079B3002C34D0002C39D06368B34205D0EA
:1030C000244BEE22244925480BF0F6FE04F11007AC
:1030D000384609F066FC70B3062001F067FD06462D
:1030E00070B305604560B8F1000F2DD0D8F80030FE
:1030F000B360BDF81830B3812D893146384609F0E8
:1031000006FC18BB236ACBB12A460021204698470B
:1031100014E0104BE522124910480BF0CDFEC8E731
:103120000C4BE6220F490D480BF0C6FEC3E72846BC
:1031300001F0FAFF02E0284601F0F6FFBDE8F08159
:10314000284601F0F1FFF9E70023D1E7304600F00F
:10315000EBFFF3E7400D0108C40D01086C0A0108FC
:10316000800D0108A40D010810B5014644682046F1
:1031700002F027FD0849204602F026FD07492046B7
:1031800002F03CFD02220649204602F071FD05498D
:10319000204602F04BFD10BDFD38000889380008BC
:1031A000053800083132000838B5044603685B680A
:1031B00033B11B4B40F265221A491B480BF07CFED1
:1031C00025682B7803F0F003102B17D0202B20D18B
:1031D000002006F051FD686023685A683AB11B78F8
:1031E000222B08D022681149506806F0F9FC2368A8
:1031F0005B688BB138BD01231374F3E7002003F043
:1032000085FB686020684368002BF0D0FFF7ACFFB7
:10321000EDE7FA232371EDE7FF232371EAE700BF0F
:10322000400D0108E40D01086C0A0108A5300008F2
:103230002DE9F0410D46044600283ED009F03EFC41
:10324000002262602572237E43F0010323766678B4
:10325000627009F03FFC236A1BB100220421204662
:103260009847236A1BB10022114620469847236ADB
:103270001BB100220221204698472846FFF7EAFEAC
:10328000074604F11008404609F08BFBE8B904F149
:103290001408404609F085FBE0B9042E18BF012E42
:1032A0001DD0032E1BD0E36993B3244B40F2F712D9
:1032B000234924480BF000FE2AE0204B4FF4DC7237
:1032C000214920480BF0F8FDB8E73946404609F09F
:1032D0001EFBDCE73946404609F019FBDDE7237E9B
:1032E00003F0FB02227613F0040F11D1E3698BB1D6
:1032F000042E17D0E3691D71E3691D680C3528465B
:1033000009F098FB90B10023E361284609F088FB9F
:10331000BDE8F081094B4FF4F3720C4909480BF0FA
:10332000CBFDE5E7E36900221A71E5E7034B40F2C4
:10333000EF12074903480BF0BFFDE4E7400D010819
:103340004C0E01086C0A0108040E0108140E010855
:10335000300E01082DE9F84F8B460546E0B16B7839
:10336000012B21D1EB693BB36B686BB3EB699A69B5
:103370005B699A4230D2EB699B89002B34D0EB69B0
:1033800093F81C802B7E13F0020F35D118F0040F38
:1033900037D04FF0010A31E08B4B40F273628B491A
:1033A0008B480BF089FDDAE7874B40F2746289495C
:1033B00087480BF081FDD5E7834B40F27562864963
:1033C00083480BF079FDCFE77F4B40F2766283496B
:1033D0007F480BF071FDC9E77B4B40F27762804973
:1033E0007B480BF069FDC6E7774B40F279627D4977
:1033F00077480BF061FDC2E74FF0010A5FFA8AFAE5
:103400005EE04FF0000AF9E7B4B267E09369B3B940
:103410006FF00604BAF1000F00F08D80EB699A6935
:103420005B699A4280F087802B6A1BB100220321DE
:10343000284698472B7E43F010032B766FE000243C
:10344000E8E748F002080446A146234499420ED317
:103450004FF6FF739C4214BF002201229E4298BF88
:10346000002282B9B6B2A64209D000260EE0564B21
:1034700040F2A3625C4956480BF01EFDE8E7EB6999
:103480009B89012B36D948F0020801264346224683
:103490003946686804F0C4FF044668B9EA6993696C
:1034A0004B449361EA6913694B441361EB691969F1
:1034B0009A68526891421FD0002C18BF00264EB364
:1034C000EA6991680F6813691F444968CE1AB6F516
:1034D000803F99D348F002084FF6FF746868B0F84F
:1034E00064008442B0D9BAF1000FAAD000288DD070
:1034F0000446A9E70026C9E79A89013A9A81EB694F
:103500009A89002AD8D09A6808329A60EB6900221A
:103510001A61D1E7631CDBB2012B7FF67BAF5CBB8A
:10352000EB699A695B699A4218D0BAF1000F17D01B
:103530004FF0010A14E06B68B3F8641040F669328A
:10354000914203D9B3F86630042BE8D92B6A002BDB
:10355000E5D00022032128469847E0E74FF0010A12
:10356000686805F023FD10F1040F25D0BAF1000FB3
:1035700005D14FF0FF300DE0B4F1FF3F0CD0EB6907
:1035800018680C301C710023EB616B70BBF1000FED
:1035900016D10020BDE8F88F686805F007FD0446E5
:1035A00010F1040FEBD0BAF1000FE2D0EB699B6988
:1035B00023B96FF00604E2E70446E0E70024DEE703
:1035C00009F02EFA0020E5E7400D0108040E01087D
:1035D0006C0A0108680E0108140E0108880E010823
:1035E000A00E0108E00E0108080F01082DE9F047C0
:1035F0008846044600285CD0237803F0F003102BA3
:103600005FD16378042B64D16368002B69D0E369D0
:10361000002B6ED06668E3691B7A03F0010903F0A2
:103620000207032B0FD0B9F1000F06D0327D531FD4
:10363000DBB2082A18BF012B05D9002F61D0738B8C
:1036400013F0100F5FD00021304602F0BAFA4FF0AD
:10365000010A337D012B59D0B9F1000F5BD1002F46
:1036600062D1BAF1000F64D1BAF1000F6BD03046CD
:1036700002F096FE0546002D6FD0B5F1FF3F6CD1EC
:10368000E3695B7A002B65D0337D012B00F09780D6
:10369000002F40F09C8001224F49304602F0E8FAAA
:1036A0004E49304602F0C2FA2146304602F089FA0D
:1036B00079E04B4B40F2A2324A494B480BF0FCFBFD
:1036C0009AE7474B40F2A332484947480BF0F4FBD6
:1036D00097E7434B4FF46972454943480BF0ECFBC5
:1036E00092E73F4B40F2A53242493F480BF0E4FBE2
:1036F0008DE73B4B40F2A6323F493B480BF0DCFBE9
:1037000088E7BA46A5E74FF0000AA2E70021304655
:1037100002F0A6FAA8E70021304602F055FA00218F
:10372000304602F09DFA9AE70021304602F066FA30
:1037300097E700221146304602F09AFA00213046FF
:1037400002F074FA90E73A464946304602F006FF26
:10375000054690E7BAF1000F28D1E3691E680C36E0
:103760001D710023E3616370CDB9BAF1000F06D07B
:103770006360236A1BB10022042120469847B9F1F7
:10378000000F05D0236A1BB100221146204698473E
:103790002FB1236A1BB10022022120469847B8F1BD
:1037A000000F08D100252846BDE8F087304602F01A
:1037B00097FF0025D1E7304609F032F9F2E7084BD0
:1037C00040F241420D4908480BF076FB60E70C4996
:1037D000304602F013FA5EE705380008313200087F
:1037E000400D0108440C01086C0A0108340F01085F
:1037F000540F0108780F0108140E01088C0F0108FE
:103800008938000810B50446F8B16378012B24D03C
:10381000042B27D0237E13F0100F14D0626892B1CE
:10382000B2F8640040F6693188420CD9B2F86620DB
:10383000042A08D803F0EF032376236A1BB1002281
:10384000022120469847002010BD0C4B4FF4B57262
:103850000B490C480BF030FBD7E701212046FFF75E
:1038600079FDD7E7E3691BB15A7A0AB1013A5A7276
:1038700001212046FFF7BAFECCE700BF400D01084A
:10388000040E01086C0A010838B515460446E8B173
:10389000D4B16378012B21D0042B24D063689BB171
:1038A000B3F8641040F6693291420DD9B3F866302E
:1038B000042B09D8237E03F0EF032376236A1BB180
:1038C0002A46022120469847002038BD084B40F286
:1038D0009312084908480BF0EFFAD9E70121204676
:1038E000FFF738FDDAE701212046FFF77FFED5E735
:1038F000400D0108040E01086C0A0108F8B50446E1
:1039000015461E460F4621B35CB3002E31D1002C64
:1039100044D06368BB4206D0234B40F235122349A2
:1039200023480BF0C9FA04F11006304609F039F8C3
:1039300038B385B32F892946304608F0E8FF05469D
:1039400078BB236A1BB13A46002120469847284697
:10395000F8BD154B4FF49672164915480BF0ACFAAA
:10396000D2E7114B40F22D12134911480BF0A4FA83
:10397000CBE70D4B4FF4977210490D480BF09CFAB2
:10398000C5E735B12989384602F0C6F8284601F066
:10399000CBFB0025DBE70A4D0027CCE76FF00505E0
:1039A000D5E74FF0FF35D2E7400D01080C100108B4
:1039B0006C0A0108B00F0108D40F0108F40F0108C8
:1039C0009D11010838B504460D4651B10E4B9C427D
:1039D0000ED00E4B9C420FD00D4B9C4210D00020BD
:1039E00038BD0C4B85220C490C480BF065FAEDE70D
:1039F000F3232B700120F3E7F2232B700120EFE774
:103A0000F1232B700120EBE79C1101089E110108A6
:103A10009D110108400D01082C1001086C0A0108D5
:103A200008B50023037103685B6803B108BDFFF7A5
:103A3000BBFBFBE770B505460E46072001F0B6F864
:103A4000044660B3002303720570436005F0F0057F
:103A5000102D01D0202D16D104F110050621284685
:103A600008F03AFFB0B9002104F10C0008F0A2FF01
:103A7000B8B904F1140008F09AFF002363702662BD
:103A8000E36123760BE0094B40F2E522084909483F
:103A90000BF012FA2146072001F0A2F8002420467C
:103AA00070BD284608F02AFFF4E700BF400D01086A
:103AB000381001086C0A010838B50446436833B170
:103AC000164B4FF44772164916480BF0F5F904F1FE
:103AD000100008F066FF88B904F1140008F061FFD7
:103AE000A0B904F10C05284608F09FFF284608F00D
:103AF000A7FF2146072001F073F838BD074B40F2BD
:103B00002332094907480BF0D7F9E5E7034B40F2A8
:103B10002632064903480BF0CFF9E2E7400D0108D1
:103B2000601001086C0A010890100108CC1001080F
:103B300030B583B0044600F11005284608F031FF87
:103B400048B91434204608F02CFF28BB03B030BD20
:103B5000019800F0E9FA01A9284608F00FFFB0F13A
:103B6000FF3F0FD0237803F0F003102BF0D10DF1BD
:103B700003010198FFF726FF0028ECD1019801F01E
:103B8000D3FAE8E7284608F0B9FE284608F00FFF08
:103B9000D7E72846FFF790FF01A9204608F0EEFE80
:103BA000B0F1FF3F12D00DF103010198FFF70AFFBA
:103BB0000028F1D1019D2846FFF7BAFF6868002868
:103BC000E7D002F08DFD00236B60E2E7204608F0AD
:103BD00095FE204608F0EBFEB8E70000F8B5002897
:103BE00074D00D461646044600F11407384608F016
:103BF000D8FE00286DD0BDB146BB216A2078FFF702
:103C000019FF064650B34560FFF7AEFA3146384615
:103C100008F07DFE054698BB236A1BB100221146C1
:103C2000204698472846F8BD6FF00C00FFF712FABF
:103C30000146384608F06BFE28B9236A1BB1002202
:103C40001146204698476FF00505EBE7224B40F2FE
:103C50002A22224922480BF02FF9CEE76FF00C0000
:103C6000FFF7F8F90146384608F051FE28B9236AF3
:103C70001BB100221146204698474FF0FF35D1E78F
:103C800074680021204601F09CFF0021204601F0CD
:103C90009BFF0021204601F0B1FF00221146204683
:103CA00001F0E6FF0021204601F0C0FF0023736011
:103CB00006F11004204608F021FE204608F077FEA9
:103CC0003046FFF7F9FE4FF0FF35ABE76FF0050523
:103CD000A8E76FF00505A5E7400D010808110108E8
:103CE0006C0A010838B5044603685D7825B11B7875
:103CF00003F0F003102B0FD1AB1E18BF0123002DD2
:103D000008BF002383B1032D0ED0FB23237120684D
:103D10000C3008F08FFE38BD3F4B40F25E423F4909
:103D20003F480BF0C9F8E7E7032D27D0032D2BD030
:103D3000002323712068FFF7FBFE2268516879B1E8
:103D4000137803F0F003102B2BD0202B05D1002388
:103D5000CB612368586805F057FF236800225A603A
:103D60002068036A13B10022114698472068036A4D
:103D7000002BCCD0002202219847C8E723681B7E85
:103D800013F0040FD2D1C0E723681B7E13F0040F99
:103D9000CED1214B40F27A42224921480BF08CF8D7
:103DA000C6E7D36933B11C4B40F294421E491C480C
:103DB0000BF082F8236804225A70032323722368CD
:103DC000DC6100212068FFF711FC0028A3D02368E4
:103DD0005B78042B17D1154D284608F058FE206853
:103DE00000210C3008F0FEFD284608F049FE23684B
:103DF0005B78002B8FD0084B40F29E420C4908485C
:103E00000BF05AF887E7044B40F29A4208490448FD
:103E10000BF052F8DFE700BF400D01083011010838
:103E20006C0A01084411010864110108FC98002083
:103E30008011010810B504460368586880B11B78EA
:103E400003F0F003102B06D0202B0CD1A289A1681F
:103E500005F01EFD09E0A289A16801F04DFD04E016
:103E60006FF0050001E06FF00500207110BD00004B
:103E700030B583B004460368586800285ED01A78CD
:103E800002F0F002102A07D0F0238DF807309DF8D9
:103E90000730237103B030BD5B78002B44D1037D24
:103EA0001BB1FA238DF80730F1E70DF10702FF216E
:103EB00001F088FD05460028E9D02068103008F0A0
:103EC00070FDC8B900238DF807302068143008F061
:103ED00068FDD0B19DF90730FBB9236802225A7002
:103EE00023685D602168486801F06BFE236815490E
:103EF000586801F0B5FECAE72068103008F0FEFCF3
:103F00002068103008F053FDDCE7206806211430EB
:103F100008F0E2FC8DF80700DCE7284602F040FAE2
:103F2000236800225A60B2E7022B03D0F5238DF8F4
:103F30000730ACE700238DF80730A8E7F5238DF8AC
:103F40000730A4E7DD3B00080023037103685A68CB
:103F5000BAB170B506461B7803F0F003102B00D001
:103F600070BD846807E0A5B233682946586801F03F
:103F7000D3FD641BF4D0B4F5803FF4D34FF6FF7546
:103F8000F2E7704738B504460068FEF7ADFE034619
:103F900038B92268137803F0F003102B03D06FF0C8
:103FA0000503237138BD5378002B44D15368002B8F
:103FB00044D0012353702368DB6933B1214B40F2B5
:103FC0002372214921480AF077FF63691BB32368F4
:103FD000DC6100212068FFF7BDF90028E2D02368EA
:103FE0005B78012B1FD11A4D284608F050FD206840
:103FF00000210C3008F0F6FC284608F041FD23684B
:104000005B78012BCED10F4B40F22C7211490F4837
:104010000AF052FFC6E70B4B40F224720E490B48E0
:104020000AF04AFFD3E7074B4FF4E5620949074816
:104030000AF042FFD7E76FF00403B2E76FF00A031C
:10404000AFE700BF400D0108641101086C0A0108C8
:10405000FC980020801101088811010838B5044639
:1040600000684278436823B1037803F0F003102B13
:1040700002D0F523237138BD237A032B01D0022A05
:10408000F7D0032A04D0012A05D1FB232371F2E7DC
:10409000F5232371EFE713F0010F30D12368DB69BB
:1040A00033B11C4B40F2BD721B491C480AF004FF9F
:1040B000236804225A702368DC6100212068FFF71E
:1040C00095FA0028D7D023685B78042B1AD1144DB9
:1040D000284608F0DCFC206800210C3008F082FC47
:1040E000284608F0CDFC23685B78002BC3D0094B31
:1040F00040F2C6720B4909480AF0DEFEBBE7FFF743
:1041000017FDCBE7034B40F2C272064903480AF0A1
:10411000D3FEDCE7400D0108641101086C0A0108B8
:10412000FC9800208011010868B110B504460068B1
:1041300020B100F0F9FF00236360236021460620D0
:1041400000F04EFD10BD704708B558B1034691B15F
:10415000D2B1406808B3406808605B685B8913802F
:10416000002008BD0E4BC6220E490F480AF0A4FEDF
:104170006FF00F00F5E70A4BC7220C490A480AF016
:104180009BFE6FF00F00ECE7054BC822084906487C
:104190000AF092FE6FF00F00E3E76FF00100E0E736
:1041A000A0110108101201086C0A01082C12010864
:1041B0004C120108F8B506460F460EE0144C204696
:1041C00008F065FC00223946304608F0AAFB20467C
:1041D00008F056FCF8BD05F0D3F905F0F1F90446F6
:1041E000B0F1FF3FEAD00028F5D0094D284608F08D
:1041F0004EFC22463946304608F093FB04462846DA
:1042000008F03EFCB4F1FF3FE4D105F0B9F9E4E772
:10421000FC98002010B504460378012B17D0022B20
:104220001DD033B1104BCF22104911480AF044FE83
:1042300008E0C36881684068984720B92146092092
:1042400000F0CEFC10BD606800F06EFFF6E743683A
:10425000806898472146082000F0C2FCF2E74368D6
:1042600080689847EEE700BF6812010898120108BD
:104270006C0A010800B583B00C4808F001FC0C4B37
:104280001B682BB10B4A1068984701E0FFF7C2FF8B
:1042900001A90948FFF78EFF01980028F6D1074BC6
:1042A0009122074907480AF007FEF1E7FC98002031
:1042B000503100205431002058310020681201088C
:1042C000981201086C0A0108F8B507460E46154613
:1042D000124808F066FB78B1092000F067FC04463C
:1042E000C0B10023037047608660C56001460B487B
:1042F00008F00DFB38B9F8BD094BFC2209490A4802
:104300000AF0DAFDE8E72146092000F069FC4FF0E9
:10431000FF30F0E74FF0FF30EDE700BF58310020ED
:1043200068120108B81201086C0A010808B591F872
:10433000313013F0180F03D0034AFFF7C5FF08BD53
:10434000024AFFF7C1FFFAE78D28000829BD0008DF
:1043500070B504460D46054E304608F091FB2846E0
:10436000A047304608F093FB002070BDFC98002069
:1043700030B583B005460C4600F0A5F8134B1D6020
:10438000134B1C600621134808F0A6FA70B91248B6
:1043900008F066FB90B9022300934FF47A73002271
:1043A0000E490F4808F078FB03B030BD0D4B40F2CA
:1043B00061220D490D480AF07FFDE8E7094B40F204
:1043C00065220B4909480AF077FDE4E750310020E7
:1043D0005431002058310020FC980020754200081C
:1043E0001013010868120108C81201086C0A0108BC
:1043F000EC120108030A43EA002080B2704703026E
:1044000003F47F0343EA0063020A02F47F4213438A
:1044100043EA1060704710B483B00023ADF8063053
:1044200000F001040B460029D4BF002100F0010177
:1044300021B110F8012B8DF80720013B0022012B40
:1044400004DD30F8021B0A44023BF8E7002B02DDD2
:1044500003788DF80630BDF80600024490B200EBF8
:10446000124290B200EB124024B103029BB2C0F39F
:104470000720184380B203B05DF8044B704770B555
:1044800005460026344600E02D689DB169896868BC
:10449000FFF7C1FF0444A0B200EB14446B8913F092
:1044A000010FF1D086F0010623029BB2C4F307246A
:1044B0001C43E9E726B123029BB2C4F307241C4343
:1044C000E04380B270BD08B508F0BEFA00F0C8F84D
:1044D00000F05CFB00F020FC05F00CF901F0E8F9BD
:1044E00005F03AF808BD0000014B1B6818447047FE
:1044F00064310020024B1B68C01A80B2704700BFB5
:1045000064310020F8B50446FFF7F4FF074625881C
:104510002846FFF7E9FF064664882046FFF7E4FFD8
:10452000B5F5205F10D8B4F5205F0FD8BC4202D09B
:104530000388BB420CD1094B1B68B3420AD0738875
:10454000BB4209D1012000E00020F8BD0020FCE7BB
:104550000020FAE70120F8E70020F6E768310020A4
:1045600038B50446354B1B68834240D8344B1B6832
:10457000A34244D92379002B49D12388B3F5205F86
:104580004DD82088FFF7B0FF844216D00379A3B935
:104590002B4B1B68834210D02A4B1B68834246D0AA
:1045A000038823800088B0F5205F06D0FFF79CFFCA
:1045B00005462046FFF79EFF68806088FFF794FF5E
:1045C0000546844212D0037983B91E4B1B68A3426F
:1045D00030D023882B802088B0F5205F06D0FFF7ED
:1045E00083FF04462846FFF785FF608038BD164BE1
:1045F00040F2DF12154916480AF05EFCB6E7124B8E
:104600004FF4F072134912480AF056FCB2E70E4B11
:1046100040F2E11210490E480AF04EFCADE70A4B99
:104620004FF4F2720D490A480AF046FCA9E7054B1F
:104630001C60B5E7034B1860CBE700BF6431002076
:10464000683100205C310020181301084413010870
:104650006C0A01085C13010878130108941301081F
:1046600038B5114C24F00304104B1C604FF4205556
:1046700025800023638023712846FFF735FF0C4B0C
:10468000186001230371058045800A4B1C600A48AD
:1046900008F0E6F900B938BD084B40F21F2208497E
:1046A00008480AF009FCF6E71B9900206431002055
:1046B000683100205C3100206031002018130108AF
:1046C000C01301086C0A0108002860D038B5044600
:1046D00010F0030F17D1A0F108052D4B1B68AB425A
:1046E00005D800F10C032B4A1268934217D92A4BC4
:1046F00040F27F2229492A480AF0DEFB08F0DEF961
:1047000008F0E8F938BD244B40F2732225492448CB
:104710000AF0D2FB08F0D2F908F0DCF9F2E72248FF
:1047200008F0AEF914F8043C9BB12846FFF7EAFE06
:10473000F0B1002304F8043C1C4B1B68AB4201D9C8
:104740001A4B1D602846FFF70BFF174808F09FF92A
:10475000D8E7114B4FF42372154911480AF0ACFB0E
:10476000114808F094F908F0A9F908F0B3F9C9E77D
:10477000094B40F295220F4909480AF09DFB0A486F
:1047800008F085F908F09AF908F0A4F9BAE770473B
:10479000643100206831002018130108001401085A
:1047A0006C0A0108DC130108603100205C31002034
:1047B0001C140108441401082DE9F8430546CC1CDB
:1047C000A4B224F00304A4B20B2C00D80C248C4215
:1047D0002CBF00210121B4F5205F88BF41F0010109
:1047E000002940F0A280544B1B68AB4203D8534BC6
:1047F0001B68AB4206D8524B40F2D1225149524875
:104800000AF05AFB4C4B1B68AB4245D84B4B1B681C
:10481000AB4241D9A5F10800FFF76CFE064635F81A
:10482000088CA8EB00081FFA88F8A8F108081FFAFE
:1048300088F8444537D8444579D87AD0434808F0B9
:104840001FF935F8087C3846FFF74EFE814603799C
:10485000002B3ED1B7F5205F2DD0B9F8007034445D
:10486000A4B20834A4B23A4B1B684B452BD0204667
:10487000FFF73AFE002303710780468025F8084CB5
:104880000088B0F5205F02D0FFF72EFE44802F484D
:1048900008F0FDF8284604E008F010F908F01AF9CD
:1048A0002846BDE8F883264B4FF43972294926483B
:1048B0000AF002FBBFE7224B40F2F52226492248CC
:1048C0000AF0FAFAC9E72046FFF70EFE204B1860FF
:1048D000CDE704F114034345D9D83444A4B20834D5
:1048E000A4B2B7F5205F18D02046FFF7FDFD184BA6
:1048F0001B68834201D9164B18600023037135F8F9
:10490000083C0380468025F8084C0088B0F5205FFD
:10491000BDD0FFF7E9FD4480B9E7094B40F21632FC
:104920000D4909480AF0C8FADEE70020B9E700207F
:10493000B7E72846B5E700BF6431002068310020A2
:1049400018130108781401086C0A0108603100206E
:104950005C31002090140108B0140108002800F018
:10496000A7802DE9F0410346C61CB6B226F0030627
:10497000B6B20B2E00D80C269E422CBF002301237A
:10498000B6F5205F88BF43F00103002B40F0928012
:10499000494808F075F8494B1868FFF7ABFD054624
:1049A0004FE0474B40F28732464947480AF084FAC5
:1049B00065E001230371414B1868A04212D03E48C4
:1049C00008F065F827440837404B1B689F421FD802
:1049D00014F0030524D15DBB04F1080066E00088F3
:1049E000FFF782FD03791BB1384A12688242F6D183
:1049F000324A1060354A12688242E0D0002BDED085
:104A00002F4B40F2B53232492F480AF055FAD6E71B
:104A10002B4B40F2B9322F492B480AF04DFAD7E719
:104A2000274B40F2BB322C4927480AF045FAD2E71F
:104A3000234B40F2BD32294923480AF03DFACBE727
:104A40002588A8463746C6F520539D422AD22846D7
:104A5000FFF74AFD04460379002BF1D10388A3EB4D
:104A60000803083BBB42EBD307F114029342A0D3E7
:104A70002E44B6B20836B6B2B6F5205F91D03046B5
:104A8000FFF732FD002303712388038045802680D1
:104A9000012323710088B0F5205F8CD0FFF724FD3F
:104AA000468088E7044807F0F2FF0020BDE8F08167
:104AB000002070470020F9E7603100205C310020C1
:104AC00018130108B01401086C0A010868310020AD
:104AD000C4140108E014010810150108401501086C
:104AE00038B5044607F0EAFF0546A3681C688CB198
:104AF00022681A6014F0030F04D1284607F0EAFF79
:104B0000204638BD054B4FF48C72054905480AF024
:104B1000D3F9F2E707F0DEFFF2E700BF6415010802
:104B2000941501086C0A010838B505460C4611F0C9
:104B3000030F09D107F0C2FFAB681B682360AB68A5
:104B40001C6007F0C7FF38BD034B4FF4B672034932
:104B500003480AF0B1F9EDE764150108B81501083A
:104B60006C0A0108836800221A604368033323F04B
:104B700003034188914208DD8168096819608168F2
:104B80000B6001880B440132F3E7704710B5002435
:104B900006E0054B53F82400FFF7E4FF0134A4B20C
:104BA0000C2CF6D910BD00BFB016010808B50C28B2
:104BB00005D8074B53F82000FFF792FF08BD054BBF
:104BC00040F25712044905480AF076F90020F5E74B
:104BD000B016010864150108D81501086C0A01080F
:104BE00008B50C2806D821B1064B53F82000FFF772
:104BF0009BFF08BD044B4FF4D572044904480AF0EA
:104C00005BF9F6E7B016010864150108F81501080C
:104C10006C0A01080B688268934205D011B1836069
:104C2000012070470023FAE7002070470B68C26834
:104C3000934205D011B1C360012070470023FAE709
:104C4000002070476FF00B00704738B504460D46E2
:104C500001F09EFE2946204605F012F838BD0000FE
:104C600038B50C46054670B195F8313003F00502B1
:104C7000052A07D114F0010F04D06A6812B113F0AD
:104C8000080F08D138BD064B40F26D320549064881
:104C90000AF012F9E8E7291D284606F0A1FCF1E721
:104CA000E4160108141701086C0A010870B582B0F7
:104CB000044615460E4639B175B1326863689A42AA
:104CC00012D1002002B070BD104B40F2CB1210493F
:104CD00010480AF0F1F8EFE70C4B4FF4E6720C497C
:104CE0000C480AF0E9F8E8E701922B6001A9284690
:104CF000FFF7ABFF3EB13368636001212046FFF749
:104D0000AFFF0120DEE70023F6E700BFE41601084D
:104D1000C80C01086C0A0108704700002DE9F04139
:104D200082B0044616461D460F46D9B1E6B1EDB134
:104D30000FB13B68E3B901AA39462046FFF7B6FF39
:104D40004FF00108002231462046FFF763FF0022A2
:104D500029462046FFF76AFFB8F1000F0BD002B0DA
:104D6000BDE8F081074FE1E7064EE0E7054DDFE7DC
:104D70004FF00008E6E701AA39462046FFF796FF04
:104D8000EDE700BFAC37010870B5059C064618B3C7
:104D9000002C2AD0002931D0002A31D0002B31D06C
:104DA00000207060B060F060364D7561308586F827
:104DB00031007062F061049830623348007886F800
:104DC0003400069830613046FFF7A8FF3046A04710
:104DD00000283ED0002050E02C4B40F227122C49F6
:104DE0002C480AF069F8304647E0284B4FF494729B
:104DF000294928480AF060F800203EE02749CBE71F
:104E0000264ACBE7254BCBE7002386F8343024E055
:104E10001E4B40F28B1222491E480AF04DF810E05A
:104E20001A4B40F28D121F491A480AF045F894F8BF
:104E3000342096F834309A4207D0246844B1B44202
:104E4000E6D00135FF2DF2DDEAE7013386F8343094
:104E50003CB196F83430FF2BD6D0134B1C6800259C
:104E6000ECE796F83430FE2B08D00133064A137075
:104E70000D4B1A6832601E60304670BD024B002236
:104E80001A70F5E7454C0008A0310020E41601082F
:104E9000381701086C0A010854170108AC370108DB
:104EA000781701088C17010834FE0020014B1860A8
:104EB000704700BF38FE002008B528B190F83130A7
:104EC00013F0010F08D008BD074B4FF45472074987
:104ED000074809F0F1FFF6E743F0010380F83130AD
:104EE0000321FFF7BDFEEEE7E4160108BC17010839
:104EF0006C0A010808B560B190F8313013F0010F69
:104F000006D003F0FE0380F8313013F0080F08D10B
:104F100008BD054B40F29B320449054809F0CCFF1F
:104F2000F6E706F0DBFAF3E7E4160108D817010804
:104F30006C0A0108024658B1064B186838B190F85F
:104F400034300133DBB2934203D00068F6E7704798
:104F50000020704734FE002010B40024046041603B
:104F6000028143819DF8043003739DF80830437338
:104F700001238373C4735DF8044B704770B50C460E
:104F800016460546E8B1B4F5803F34BF002301233F
:104F9000002D08BF012323BB2CB3A2B22B891344DD
:104FA0009BB2934221D395F90C10002911DBF6B185
:104FB00069680C1B6C6069890A446A812B81002036
:104FC00010E00C4B40F2DF120B490C4809F074FF63
:104FD000D9E769680C1B05F11001A142EAD901204B
:104FE00000E0012070BD0020FCE70120FAE701206D
:104FF000F8E700BFF8170108603201086C0A0108E1
:10500000F0B583B006460D461446412A18BF012A62
:105010000FD10B20FFF7CAFD074638B100230193DB
:1050200000942B462A463146FFF796FF384603B0D8
:10503000F0BD044B4FF4A5720349044809F03CFF4E
:10504000E7E700BFF8170108281801086C0A0108F3
:1050500070B582B00D461E460699C41C24F00304A8
:105060002819BDF81C3098420DD801B121443446AE
:105070000223019300922B462A463046FFF76CFF2D
:10508000204602B070BD0024FAE708B50022FFF701
:1050900075FF08BD38B50C460546B8B1B4F5803F7C
:1050A00034BF00230123002D08BF0123FBB904B343
:1050B000A2B26B89934211D36968214469609B1A3B
:1050C0006B812B899A1A2A81002038BD0A4B40F245
:1050D0004B220A490A4809F0EFFEDFE7064B40F28F
:1050E00055220849064809F0E7FE0120EDE70120B6
:1050F000EBE70020E9E700BFF8170108603201087C
:105100006C0A01083C18010808B5002902DBFFF70A
:1051100035FF08BD4942FFF7BDFFFAE708B5012298
:10512000FFF7F2FF08BD0000F8B510B104460026F5
:1051300017E02B4B4FF437722A492B4809F0BCFE7D
:1051400000263046F8BD264B40F2F122274926487A
:1051500009F0B2FE0DE02369204698470136F6B209
:105160002C46002CEDD007F0A9FC0746A37B002BB2
:10517000E9D0A57B013DEDB2A573384607F0AAFC46
:10518000002DDED12568237B03F00F03627B12F034
:10519000020F0AD02369002BDDD1114B40F2FF2210
:1051A0001349114809F088FED5E7022B06D0012BE0
:1051B00009D06BB92046FFF787FACFE721460C20CC
:1051C000FFF70EFDCAE721460B20FFF709FDC5E7F3
:1051D000034B40F20F320749034809F06DFEBDE76B
:1051E000F8170108603201086C0A01085C18010810
:1051F00074180108981801082DE9F04782B00E468E
:10520000904685B2B2F5C17F46D007460ED8012A36
:1052100002D0412A40F08380424631460020FFF709
:10522000EFFE8146484602B0BDE8F087B2F5207F28
:1052300075D1033525F00305ADB2CA1C93B223F036
:1052400003031D44ADB205F1100080B222F0030249
:1052500095426ED382426FD8FFF780FB81460028CB
:10526000E0D007F110010144033100230193CDF890
:1052700000803346324621F00301FFF76DFED9F876
:10528000043013F0030FCDD02D4B4FF491722D4904
:105290002D4809F011FEC5E70027B94618E0B9F11D
:1052A000000F02D04846FFF73FFFB946BAE7244B4C
:1052B0004FF480722549244809F0FEFDB9F1000F32
:1052C0002BD0CAF80070361BB6B20025002EA9D02C
:1052D000BA460C20FFF76AFC07460028DFD0EB1C1B
:1052E00023F003039BB240F2F454E41AA4B2B44294
:1052F00028BF344605F11001014403310023019316
:10530000CDF800802346324621F00301FFF724FE4A
:105310007B6813F0030FD1D0C9E7B946D3E7084B38
:1053200040F227120A49084809F0C6FD4FF000096B
:1053300078E74FF0000975E74FF0000972E700BF0A
:10534000F8170108101901086C0A0108AC180108C7
:105350003C190108F8B50E460446B8B12789B74292
:105360002ED935466389AB4218D2EB1A9DB22389F8
:10537000F21B134423812468002CF3D11A4B40F212
:10538000AF121A491A4809F097FDEBE7164B4FF494
:10539000CC721849164809F08FFDDFE7227B12F026
:1053A0000F0F05D1AB4203D0637B13F0020F08D07F
:1053B00065812581206808B1FFF7B6FE00232360D0
:1053C000F8BD63681B1BE91889B22046FFF7F4F9A2
:1053D00004460028ECD1044B40F2BD1206490448B3
:1053E00009F06AFDE4E700BFF81701087019010829
:1053F0006C0A0108581901088819010803460020A1
:105400001BB1013080B21B68FAE7704798B110B544
:10541000044607F053FBA37B0133A37307F05AFB49
:10542000A37B03B110BD044B40F242320349044850
:1054300009F042FDF6E77047F8170108A4190108C2
:105440006C0A010838B504460D46B1FA81F14909E4
:10545000002808BF012161B1154B40F259321549AE
:10546000154809F029FD19E0238929890B44238176
:1054700014462268002AF7D1228963899A420ED104
:10548000236833B10A4B40F263320C490A4809F0F1
:1054900013FD23892A8913442381256038BD044BD9
:1054A00040F262320649044809F006FDE8E700BF11
:1054B000F8170108B81901086C0A0108201A010838
:1054C000F019010810B50C46FFF7BCFF2046FFF7A6
:1054D0009DFF10BD2DE9F0410C46B1FA81F149095B
:1054E000002808BF012139B90546028923899A425B
:1054F00002D30027B8463CE03B4B40F2C9323B495F
:105500003B4809F0D9FC6FF00F006AE0364B40F2DF
:10551000D9323849364809F0CFFC3EE0324B40F2F0
:10552000DA323549324809F0C7FC39E02D68231ECC
:1055300018BF0123002D18BF002313B94FF0000836
:1055400036E0294B4FF479722C49294809F0B4FC14
:105550006FF00F0045E023687BB3234B40F2E93244
:105560002749234809F0A8FC6FF0050039E0002C1A
:1055700036D06E89A6EB08066389DB1B9E4200D3FA
:105580001E466868616832463944404409F064FC4C
:10559000B04437446B894345B8D36389BB42BDD31C
:1055A0006389BB4201D8246800276B894345BDD07D
:1055B0001CB1628923899A42CDD0002DD7D06A8947
:1055C0002B899A42D3D12B68002BD0D0064B40F2C6
:1055D000EE320B49064809F06FFC6FF0050000E061
:1055E0000020BDE8F08100BFF8170108301A01085B
:1055F0006C0A0108601A0108781A0108941A010857
:10560000A41A01082DE9F84330B1884691460546B1
:1056100069B100273E462AE01D4B40F20A421D496F
:105620001D4809F049FC00273846BDE8F883184BAF
:1056300040F20B421949184809F03EFC0027F3E7F5
:105640006C89E41AA4B2A14500D24C46696822468E
:10565000194408EB060009F0FFFB2744BFB22644BB
:10566000B6B2A9EB04041FFA84F900232D68281EA2
:1056700018BF0120B9F1000F08BF00200028D3D0C7
:10568000002BDDD069899942DAD85B1A9BB2EDE72D
:10569000F8170108D01A01086C0A0108F01A01086D
:1056A00038B514460A462189FFF7A6FD054618B10C
:1056B0002146FFF70FFF08B9284638BD034B40F2DB
:1056C00024520349034809F0F7FBF5E7F8170108EE
:1056D000141B01086C0A010810B4002409E0164BE1
:1056E0004FF440421A800DE00134A4B2B4F5804F6B
:1056F0001FD2114A138801339BB213804FF6FF72F9
:105700009342ECD0002003280ED80C4B53F82030E5
:105710001B6833B1D98A084A12889142E4D0DB6809
:10572000F7E70130C0B2EEE7034B18885DF8044B91
:1057300070470020FAE700BF1C000020BC210108D0
:1057400038B504460D4649B9074BFF2207490848BA
:1057500009F0B2FB02E00023A367E4681CB1A36F69
:10576000AB42FAD1F7E738BD281B0108541B0108EA
:105770006C0A010838B5054620B12B7D012B09D1F3
:10578000012417E00D4B40F211120D490D4809F0AC
:1057900093FBF2E7094B4FF489720B49094809F072
:1057A0008BFBEDE7094B53F8243029461868FFF7C7
:1057B000C7FF0134032CF5D938BD00BF281B0108F1
:1057C0007C1B01086C0A0108881B0108BC21010828
:1057D00010B50446037D012B04D021460220FFF7BB
:1057E000FFF910BD034BDF220349044809F064FBB5
:1057F000F3E700BF281B0108A01B01086C0A010881
:1058000038B5054648B12B7D042B1FD0072B26D079
:10581000032B0AD00024204638BD174B4FF4CE721C
:105820001649174809F048FBEDE7284603F040FA0F
:10583000044608B905232B75D4B1B4F1FF3FEAD172
:105840006B8B43F008036B830024E4E7284603F0E6
:105850002FFA04460028EFD105232B75ECE72846E4
:1058600003F026FA04460028E6D109232B75E3E766
:10587000284603F09BFBCEE7281B01087C1B010890
:105880006C0A0108094B186878B110B506E023F0DE
:1058900008034383FFF7B4FF20462CB1C468438B51
:1058A00013F0080FF8D0F2E710BD704740FE00205B
:1058B00008B509F019FB024B0343024A138008BDE7
:1058C00000C0FFFF1C00002010B50446037D012B23
:1058D00004D021460120FFF783F910BD034BD422E9
:1058E0000349044809F0E8FAF3E700BF281B010860
:1058F000BC1B01086C0A010870B506460D4659B17B
:1059000066B1337DA3B9EAB1002003281EDC264B23
:1059100053F820301B6827E0244DF1E7244B40F278
:10592000A9222449244809F0C7FA6FF00F0019E0B2
:105930001F4B40F2AB2221491F4809F0BDFA6FF01E
:1059400005000FE0FFF7C8FE0246F0B115B12B6865
:1059500003B13360F2821A4B1A68F2601E6003F0E2
:10596000C1FD002070BDDB686BB1D98A9142FAD1CC
:1059700073B1196879B18DB12C6894B1A142F2D19B
:105980006FF00700EEE70130BFE76FF00100E9E7D5
:105990006FF00700E6E76FF00700E3E76FF007003E
:1059A000E0E76FF00700DDE7BC210108AC37010834
:1059B000281B0108D01B01086C0A0108E81B01081C
:1059C0004CFE002070B51646044640B3037D002B04
:1059D00030D1012B51D00220FFF7E8F8054600280E
:1059E0004FD023690361E38AC38201230375637D7A
:1059F0004375637A437200230372E37AC372A37A16
:105A0000837223680360E38A3BB31F4B1B68A34286
:105A10001BD003B3DA68A2421BD01346F9E71B4B35
:105A200040F259321A491B4809F046FA25466FF0F0
:105A30000F031EE0154B40F25A321749154809F082
:105A40003BFA6FF00E03002513E0DA680E4B1A6084
:105A500001E0E268DA600023E3602046FFF734FFEC
:105A60000E4BAB610E4B1A68EA601D6003F03AFD05
:105A7000002306B13370284670BD05466FF0080359
:105A8000F7E74FF0FF33F4E74CFE0020281B010836
:105A9000101C01086C0A0108401C0108ED66000892
:105AA00048FE002070B5044680B1656A218D6818F3
:105AB000E26A638E40F2B456B34294BFD31893198E
:105AC000C31A002B0ADB6185801A70BD0E4B40F2B1
:105AD000A6320E490E4809F0EFF9E6E7AB1A002BA3
